:0300F700010800FD
:0400DC007F147E000F
:1000E000EF4E60120000007D0B7CBEDCFEDDFCEFFD
:0600F0001F70ED1E80EA06
:0100F60022E7
:10008F0075A0FE20B01E1200DC30B0FD1200DC05A2
:10009F0008530807AF08A8077401088002C333D8B4
:1000AF00FCF4F5A020B1DC1200DC30B1FD1200DC55
:1000BF00E508700575080780021508AF08A80774D2
:0D00CF0001088002C333D8FCF4F5A080B610
:03000000020003F8
:0C000300787FE4F6D8FD75810802004A01
:10000F0002008FE493A3F8E493A34003F68001F278
:10001F0008DFF48029E493A3F85407240CC8C333F2
:10002F00C4540F4420C8834004F456800146F6DFC1
:10003F00E4800B01020408102040809000F7E47E5A
:10004F00019360BCA3FF543F30E509541FFEE493B6
:10005F00A360010ECF54C025E060A840B8E493A37D
:10006F00FAE493A3F8E493A3C8C582C8CAC583CAA8
:10007F00F0A3C8C582C8CAC583CADFE9DEE780BE60
:0100FA000005
:00000001FF
